{
  "_format": "hh-sol-artifact-1",
  "contractName": "Dbank",
  "sourceName": "contracts/Dbank.sol",
  "abi": [
    {
      "inputs": [
        {
          "internalType": "uint256",
          "name": "_interestRate",
          "type": "uint256"
        }
      ],
      "stateMutability": "nonpayable",
      "type": "constructor"
    },
    {
      "anonymous": false,
      "inputs": [
        {
          "indexed": true,
          "internalType": "address",
          "name": "user",
          "type": "address"
        },
        {
          "indexed": false,
          "internalType": "uint256",
          "name": "amount",
          "type": "uint256"
        }
      ],
      "name": "BalanceWithdrawn",
      "type": "event"
    },
    {
      "anonymous": false,
      "inputs": [
        {
          "indexed": true,
          "internalType": "address",
          "name": "user",
          "type": "address"
        },
        {
          "indexed": false,
          "internalType": "uint256",
          "name": "amount",
          "type": "uint256"
        }
      ],
      "name": "CollateralDeposited",
      "type": "event"
    },
    {
      "anonymous": false,
      "inputs": [
        {
          "indexed": true,
          "internalType": "address",
          "name": "user",
          "type": "address"
        },
        {
          "indexed": false,
          "internalType": "uint256",
          "name": "amount",
          "type": "uint256"
        }
      ],
      "name": "LoanBorrowed",
      "type": "event"
    },
    {
      "anonymous": false,
      "inputs": [
        {
          "indexed": true,
          "internalType": "address",
          "name": "user",
          "type": "address"
        },
        {
          "indexed": false,
          "internalType": "uint256",
          "name": "amount",
          "type": "uint256"
        }
      ],
      "name": "LoanRepaid",
      "type": "event"
    },
    {
      "anonymous": false,
      "inputs": [
        {
          "indexed": true,
          "internalType": "address",
          "name": "lender",
          "type": "address"
        },
        {
          "indexed": false,
          "internalType": "uint256",
          "name": "amount",
          "type": "uint256"
        }
      ],
      "name": "MoneyLended",
      "type": "event"
    },
    {
      "inputs": [
        {
          "internalType": "address",
          "name": "",
          "type": "address"
        }
      ],
      "name": "accounts",
      "outputs": [
        {
          "internalType": "uint256",
          "name": "balance",
          "type": "uint256"
        },
        {
          "internalType": "uint256",
          "name": "money",
          "type": "uint256"
        },
        {
          "internalType": "uint256",
          "name": "borrowedAmount",
          "type": "uint256"
        }
      ],
      "stateMutability": "view",
      "type": "function"
    },
    {
      "inputs": [
        {
          "internalType": "uint256",
          "name": "amount",
          "type": "uint256"
        }
      ],
      "name": "borrow",
      "outputs": [],
      "stateMutability": "nonpayable",
      "type": "function"
    },
    {
      "inputs": [],
      "name": "deposit",
      "outputs": [],
      "stateMutability": "payable",
      "type": "function"
    },
    {
      "inputs": [],
      "name": "getAccountDetails",
      "outputs": [
        {
          "components": [
            {
              "internalType": "uint256",
              "name": "balance",
              "type": "uint256"
            },
            {
              "internalType": "uint256",
              "name": "money",
              "type": "uint256"
            },
            {
              "internalType": "uint256",
              "name": "borrowedAmount",
              "type": "uint256"
            }
          ],
          "internalType": "struct Dbank.Account",
          "name": "",
          "type": "tuple"
        }
      ],
      "stateMutability": "view",
      "type": "function"
    },
    {
      "inputs": [],
      "name": "interestRate",
      "outputs": [
        {
          "internalType": "uint256",
          "name": "",
          "type": "uint256"
        }
      ],
      "stateMutability": "view",
      "type": "function"
    },
    {
      "inputs": [
        {
          "internalType": "uint256",
          "name": "money",
          "type": "uint256"
        }
      ],
      "name": "lendMoney",
      "outputs": [],
      "stateMutability": "nonpayable",
      "type": "function"
    },
    {
      "inputs": [],
      "name": "pool",
      "outputs": [
        {
          "internalType": "uint256",
          "name": "",
          "type": "uint256"
        }
      ],
      "stateMutability": "view",
      "type": "function"
    },
    {
      "inputs": [],
      "name": "repayAmount",
      "outputs": [
        {
          "internalType": "uint256",
          "name": "",
          "type": "uint256"
        }
      ],
      "stateMutability": "view",
      "type": "function"
    },
    {
      "inputs": [
        {
          "internalType": "uint256",
          "name": "amount",
          "type": "uint256"
        }
      ],
      "name": "repayLoan",
      "outputs": [],
      "stateMutability": "nonpayable",
      "type": "function"
    },
    {
      "inputs": [],
      "name": "withdrawBalance",
      "outputs": [
        {
          "internalType": "uint256",
          "name": "",
          "type": "uint256"
        }
      ],
      "stateMutability": "nonpayable",
      "type": "function"
    }
  ],
  "bytecode": "0x60806040523480156200001157600080fd5b506040516200121138038062001211833981810160405281019062000037919062000085565b8060018190555050620000b7565b600080fd5b6000819050919050565b6200005f816200004a565b81146200006b57600080fd5b50565b6000815190506200007f8162000054565b92915050565b6000602082840312156200009e576200009d62000045565b5b6000620000ae848285016200006e565b91505092915050565b61114a80620000c76000396000f3fe6080604052600436106100915760003560e01c8063bec228d811610059578063bec228d81461017f578063c39869c1146101a8578063c5ebeaec146101d3578063d0e30db0146101fc578063d0efe7531461020657610091565b806316f0115b146100965780635e5c06e2146100c15780635fd8c710146101005780637c3a00fd1461012b578063ab7b1c8914610156575b600080fd5b3480156100a257600080fd5b506100ab610231565b6040516100b89190610a51565b60405180910390f35b3480156100cd57600080fd5b506100e860048036038101906100e39190610acf565b610237565b6040516100f793929190610afc565b60405180910390f35b34801561010c57600080fd5b50610115610261565b6040516101229190610a51565b60405180910390f35b34801561013757600080fd5b50610140610406565b60405161014d9190610a51565b60405180910390f35b34801561016257600080fd5b5061017d60048036038101906101789190610b5f565b61040c565b005b34801561018b57600080fd5b506101a660048036038101906101a19190610b5f565b6105d0565b005b3480156101b457600080fd5b506101bd610692565b6040516101ca9190610bdd565b60405180910390f35b3480156101df57600080fd5b506101fa60048036038101906101f59190610b5f565b610706565b005b6102046108ed565b005b34801561021257600080fd5b5061021b610995565b6040516102289190610a51565b60405180910390f35b60025481565b60006020528060005260406000206000915090508060000154908060010154908060020154905083565b6000806000803373ffffffffffffffffffffffffffffffffffffffff1673ffffffffffffffffffffffffffffffffffffffff168152602001908152602001600020905060008160010154116102eb576040517f08c379a00000000000000000000000000000000000000000000000000000000081526004016102e290610c55565b60405180910390fd5b600254606460015483600101546103029190610ca4565b61030c9190610d15565b826001015461031b9190610d46565b111561035c576040517f08c379a000000000000000000000000000000000000000000000000000000000815260040161035390610dc6565b60405180910390fd5b6000606460015483600101546103729190610ca4565b61037c9190610d15565b826001015461038b9190610d46565b9050806002600082825461039f9190610de6565b92505081905550600082600101819055503373ffffffffffffffffffffffffffffffffffffffff167fddc398b321237a8d40ac914388309c2f52a08c134e4dc4ce61e32f57cb7d80f1826040516103f69190610a51565b60405180910390a2809250505090565b60015481565b6000811161044f576040517f08c379a000000000000000000000000000000000000000000000000000000000815260040161044690610e8c565b60405180910390fd5b60008060003373ffffffffffffffffffffffffffffffffffffffff1673ffffffffffffffffffffffffffffffffffffffff1681526020019081526020016000209050600060015460646104a29190610d46565b6064846104af9190610ca4565b6104b99190610d15565b905082600260008282546104cd9190610d46565b92505081905550808260020154101561051b576040517f08c379a000000000000000000000000000000000000000000000000000000000815260040161051290610ef8565b60405180910390fd5b8082600201600082825461052f9190610de6565b925050819055503373ffffffffffffffffffffffffffffffffffffffff166108fc829081150290604051600060405180830381858888f1935050505015801561057c573d6000803e3d6000fd5b503373ffffffffffffffffffffffffffffffffffffffff167fc200a1f31dd659e356e0f112c82558e25f49f7b0f84438691cd96f5cb3558823826040516105c39190610a51565b60405180910390a2505050565b80600260008282546105e29190610d46565b92505081905550806000803373ffffffffffffffffffffffffffffffffffffffff1673ffffffffffffffffffffffffffffffffffffffff168152602001908152602001600020600101600082825461063a9190610d46565b925050819055503373ffffffffffffffffffffffffffffffffffffffff167f6252f0b0df157e4ff3d4d9202ac030383c27edf124b9d0d490c9f2bc7ae31d3a826040516106879190610a51565b60405180910390a250565b61069a610a17565b6000803373ffffffffffffffffffffffffffffffffffffffff1673ffffffffffffffffffffffffffffffffffffffff1681526020019081526020016000206040518060600160405290816000820154815260200160018201548152602001600282015481525050905090565b60008111610749576040517f08c379a000000000000000000000000000000000000000000000000000000000815260040161074090610f8a565b60405180910390fd5b60008060003373ffffffffffffffffffffffffffffffffffffffff1673ffffffffffffffffffffffffffffffffffffffff168152602001908152602001600020905060008160020154146107d2576040517f08c379a00000000000000000000000000000000000000000000000000000000081526004016107c990610ff6565b60405180910390fd5b8060000154821115610819576040517f08c379a000000000000000000000000000000000000000000000000000000000815260040161081090611062565b60405180910390fd5b81600254101561085e576040517f08c379a0000000000000000000000000000000000000000000000000000000008152600401610855906110f4565b60405180910390fd5b81600260008282546108709190610de6565b92505081905550818160020181905550818160000160008282546108949190610de6565b925050819055503373ffffffffffffffffffffffffffffffffffffffff167ffb8ea5178ac89ff9d832e8c9c1b977ca7ab31f52ac7a4179f2e2e065b093565b836040516108e19190610a51565b60405180910390a25050565b346000803373ffffffffffffffffffffffffffffffffffffffff1673ffffffffffffffffffffffffffffffffffffffff168152602001908152602001600020600001600082825461093e9190610d46565b925050819055503373ffffffffffffffffffffffffffffffffffffffff167fd7243f6f8212d5188fd054141cf6ea89cfc0d91facb8c3afe2f88a13584801423460405161098b9190610a51565b60405180910390a2565b6000806000803373ffffffffffffffffffffffffffffffffffffffff1673ffffffffffffffffffffffffffffffffffffffff16815260200190815260200160002090506000606460015483600201546109ee9190610ca4565b6109f89190610d15565b90506000818360020154610a0c9190610d46565b905080935050505090565b60405180606001604052806000815260200160008152602001600081525090565b6000819050919050565b610a4b81610a38565b82525050565b6000602082019050610a666000830184610a42565b92915050565b600080fd5b600073ffffffffffffffffffffffffffffffffffffffff82169050919050565b6000610a9c82610a71565b9050919050565b610aac81610a91565b8114610ab757600080fd5b50565b600081359050610ac981610aa3565b92915050565b600060208284031215610ae557610ae4610a6c565b5b6000610af384828501610aba565b91505092915050565b6000606082019050610b116000830186610a42565b610b1e6020830185610a42565b610b2b6040830184610a42565b949350505050565b610b3c81610a38565b8114610b4757600080fd5b50565b600081359050610b5981610b33565b92915050565b600060208284031215610b7557610b74610a6c565b5b6000610b8384828501610b4a565b91505092915050565b610b9581610a38565b82525050565b606082016000820151610bb16000850182610b8c565b506020820151610bc46020850182610b8c565b506040820151610bd76040850182610b8c565b50505050565b6000606082019050610bf26000830184610b9b565b92915050565b600082825260208201905092915050565b7f4e6f2062616c616e636520746f20776974686472617700000000000000000000600082015250565b6000610c3f601683610bf8565b9150610c4a82610c09565b602082019050919050565b60006020820190508181036000830152610c6e81610c32565b9050919050565b7f4e487b7100000000000000000000000000000000000000000000000000000000600052601160045260246000fd5b6000610caf82610a38565b9150610cba83610a38565b9250828202610cc881610a38565b91508282048414831517610cdf57610cde610c75565b5b5092915050565b7f4e487b7100000000000000000000000000000000000000000000000000000000600052601260045260246000fd5b6000610d2082610a38565b9150610d2b83610a38565b925082610d3b57610d3a610ce6565b5b828204905092915050565b6000610d5182610a38565b9150610d5c83610a38565b9250828201905080821115610d7457610d73610c75565b5b92915050565b7f4e6f7420656e6f7567682062616c616e636520746f2077697468647261770000600082015250565b6000610db0601e83610bf8565b9150610dbb82610d7a565b602082019050919050565b60006020820190508181036000830152610ddf81610da3565b9050919050565b6000610df182610a38565b9150610dfc83610a38565b9250828203905081811115610e1457610e13610c75565b5b92915050565b7f526570617920616d6f756e74206d75737420626520677265617465722074686160008201527f6e20300000000000000000000000000000000000000000000000000000000000602082015250565b6000610e76602383610bf8565b9150610e8182610e1a565b604082019050919050565b60006020820190508181036000830152610ea581610e69565b9050919050565b7f4578636565647320626f72726f77656420616d6f756e74000000000000000000600082015250565b6000610ee2601783610bf8565b9150610eed82610eac565b602082019050919050565b60006020820190508181036000830152610f1181610ed5565b9050919050565b7f426f72726f7720616d6f756e74206d757374206265206772656174657220746860008201527f616e203000000000000000000000000000000000000000000000000000000000602082015250565b6000610f74602483610bf8565b9150610f7f82610f18565b604082019050919050565b60006020820190508181036000830152610fa381610f67565b9050919050565b7f5265706179206578697374696e67206c6f616e20666972737400000000000000600082015250565b6000610fe0601983610bf8565b9150610feb82610faa565b602082019050919050565b6000602082019050818103600083015261100f81610fd3565b9050919050565b7f4e6f7420656e6f75676820636f6c6c61746572616c0000000000000000000000600082015250565b600061104c601583610bf8565b915061105782611016565b602082019050919050565b6000602082019050818103600083015261107b8161103f565b9050919050565b7f4e6f7420656e6f756768206d6f6e657920746f206c656e6420796f752063617360008201527f6800000000000000000000000000000000000000000000000000000000000000602082015250565b60006110de602183610bf8565b91506110e982611082565b604082019050919050565b6000602082019050818103600083015261110d816110d1565b905091905056fea26469706673582212209b381dfd433b9eb44c680efd2af9e5e7c60ad754fa1e1155915a258eb5b9c2bf64736f6c63430008130033",
  "linkReferences": {},
  "deployedLinkReferences": {}
}